:020000040800F2
:100000000004002047010008B5040008B7040008F8
:10001000BB040008BF040008C3040008000000007F
:10002000000000000000000000000000C7040008FD
:10003000C904000800000000CB040008CD0400083B
:1000400067010008670100086701000867010008F0
:1000500067010008670100086701000867010008E0
:1000600067010008670100086701000867010008D0
:1000700067010008670100086701000867010008C0
:1000800067010008670100086701000867010008B0
:1000900067010008670100086701000867010008A0
:1000A0006701000867010008670100086701000890
:1000B0006701000867010008670100086701000880
:1000C0006701000867010008670100086701000870
:1000D0006701000867010008670100086701000860
:1000E0006701000867010008670100086701000850
:1000F0006701000867010008670100086701000840
:10010000670100086701000867010008670100082F
:10011000670100086701000867010008670100081F
:10012000670100086701000867010008670100080F
:10013000DFF80CD001F028FE004800471D0300083E
:1001400020020020704708488047084981F308884A
:1001500007480047FEE7FEE7FEE7FEE7FEE7FEE7AB
:10016000FEE7FEE7FEE7FEE745010008200200206B
:1001700031010008002107E0002200E0521C42F695
:10018000E0639A42FAD3491C8142F5D370472DE9C6
:10019000F04F97B083468A46584601F022FD044648
:1001A000AE4AAF4B01F02BFCCDE91201584601F0ED
:1001B00018FD04460D46584601F013FD8046A94A35
:1001C000A94B01F01CFC064622462B4601F017FC09
:1001D000CDE90E01584601F004FDCDE9060158466F
:1001E00001F0FFFC04460D46584601F0FAFC0646B5
:1001F0009E4A9F4B01F003FC804622462B4601F0AD
:10020000FEFBCDE90401DDE9062301F0F8FBCDE9B1
:100210000A01584601F0E5FC80468946584601F03F
:10022000E0FC04460D46584601F0DBFCCDE9020136
:10023000584601F0D6FC06460022134601F0DFFBCB
:10024000CDE90001DDE9022301F0D9FB22462B466E
:10025000CDE9040101F0D3FB42464B46CDE906014E
:1002600001F0CDFBCDE90801DDE90A2301F020FB17
:10027000CDE90C01DDE90E2301F01AFBCDE91001F7
:10028000DDE9122301F014FB7A4A7B4BCDE914011E
:1002900001F00EFBCAE9000117B0BDE8F08F0021A4
:1002A00006E00A2100BF0A1EA1F1010399B2FAD1AA
:1002B000021EA0F1010398B2F3D1704770B5054654
:1002C0000E46002404E0285D6C4901F07EFD641CAC
:1002D000B442F8DB70BD2DE9F04186B00446154606
:1002E0001E46142266A101A801F0D0FA04F1D00044
:1002F000C0B28DF807000022664B2846314601F057
:100300007EFB074601F07AFC00B2ADF80C00142128
:1003100001A8FFF7D3FF06B0BDE8F0818CB000BFA5
:1003200000BF00200A900990089001F09BF901F0AD
:10033000C3F901F09DFA8FE04FF4FA70FFF71AFF4E
:100340000020099008900A9010E05348018809980D
:1003500008440990504841880898084408900A20A9
:10036000FFF79DFF0A98401C80B20A900A98B0F5EA
:100370007A7FEADB4FF47A710998B0FBF1F00390D1
:1003800001F02FFC0022454BCDE9040101F037FBC1
:100390000022434BCDE9060101F0A3FB04460D46C4
:1003A0004FF47A710898B0FBF1F0039001F019FC5A
:1003B00000223A4BCDE9040101F021FB0022384B29
:1003C000CDE9060101F08DFB06460F46354A364B56
:1003D0002046294601F00DFB0022344BCDE90001F7
:1003E00001F00DFBCDE9020101F027FC304951F885
:1003F0002000059001F0E4FB0022264BCDE9060128
:1004000001F06FFB80468946264A274B3046394625
:1004100001F0EFFA0022254BCDE9000101F0EFFADF
:10042000CDE9020101F009FC214951F820000590B5
:1004300001F0C6FB0022174BCDE9060101F051FB8C
:1004400082468B4642464B460020FFF744FF524609
:100450005B460120FFF73FFF6EE7000081A815F023
:1004600066BCA1BED8BA1C5389A7EE3D5B14EA9DB9
:1004700077B22BBD1D901138BD80463F180000207B
:10048000AA5500DD00080000000056789ABCDEF096
:1004900000000D0A0000594014000020502D894032
:1004A00000408F409A999999999D86400000244078
:1004B000D01D0008704700BFFEE700BFFEE700BF89
:1004C000FEE700BFFEE770477047704770470000C7
:1004D00010B50446C649601A8C422FD009DCC548C5
:1004E000204480B1B0F5806F16D0B0F5006F4AD1CE
:1004F0001BE0B0F5806F2AD0B0F5006F30D0B0F5BA
:10050000406F40D135E00121042000F0FFFA0021C6
:10051000042000F0FBFA37E00121082000F0F6FA91
:100520000021082000F0F2FA2EE00121102000F056
:10053000EDFA0021102000F0E9FA25E00121202049
:1005400000F0E4FA0021202000F0E0FA1CE0012194
:10055000402000F0DBFA0021402000F0D7FA13E041
:100560000121802000F0D2FA0021802000F0CEFA94
:100570000AE00121080200F0C9FA00214FF480705E
:1005800000F0C4FA00E000BF00BF10BD10B50121AB
:10059000084600F0BBFA0021012000F0B7FA10BDB8
:1005A0002DE9F0410246002500260020002300240A
:1005B000002791F803C00CF00F0591F803C00CF070
:1005C000100CBCF1000F03D091F802C04CEA0505F5
:1005D00091F800C0BCF1000F31D0146800202BE06E
:1005E0004FF0010C0CFA00F3B1F800C00CEA03065E
:1005F0009E4220D183004FF00F0C0CFA03F7BC434E
:1006000005FA03FC4CEA040491F803C0BCF1280F7E
:1006100006D14FF0010C0CFA00FCC2F814C00AE03D
:1006200091F803C0BCF1480F05D14FF0010C0CFA52
:1006300000FCC2F810C0401C0828D1D31460B1F8E7
:1006400000C0BCF1FF0F34DD546800202EE000F143
:10065000080C4FF0010808FA0CF3B1F800C00CEADE
:1006600003069E4221D183004FF00F0C0CFA03F7D2
:10067000BC4305FA03FC4CEA040491F803C0BCF146
:10068000280F05D100F1080C08FA0CF8C2F8148004
:1006900091F803C0BCF1480F07D100F1080C4FF0EE
:1006A000010808FA0CF8C2F81080401C0828CED3C4
:1006B0005460BDE8F0814FF6FF7101800221817026
:1006C0000421C17070470246002093680B400BB1B3
:1006D000012000E0002070470146886880B2704722
:1006E00002460020D3680B400BB1012000E000203F
:1006F00070470146C86880B2704701617047416128
:1007000070470AB1016100E041617047C160704704
:100710004FF480320A438261816182618269826919
:10072000704702460020344B18684FF6807318401B
:1007300040EA02100843304B186070472F49C861E7
:100740007047F0B50A4600230024002100252A4EF8
:100750007168C0F3034583B200F44016B6F5401F3C
:1007600008D121F07061244E766826F07066224F21
:100770007E6012E000F48016B6F5801F06D10326D5
:1007800006FA05F4A14341F0706106E0460D36011A
:1007900003FA06F6B14341F0706122B1460D36010D
:1007A00003FA06F63143144E7160F0BD30B50022F5
:1007B0008B071C0F0F2303FA04F20F4B08338C1026
:1007C00053F8243093430C4C08348D1044F82530F2
:1007D00023468C1053F824308C07240F00FA04F4BD
:1007E0002343054C08348D1044F8253030BD0000FB
:1007F0000014014000F8FEBF00000140000020424C
:10080000DE48006840F00100DC49086008464068A6
:10081000DB490840D949486008460068D949084082
:10082000D64908600846006820F480200860084621
:10083000406820F4FE004860002088607047CF497F
:10084000096821F48031CD4A11601146096821F40C
:1008500080211160B0F5803F03D0B0F5802F0ED11C
:1008600006E0C649096841F48031C44A116007E0D6
:10087000C249096841F4A021C04A116000E000BFEC
:1008800000BF704710B501460022002300204A1126
:10089000012A02D1B94C236806E0022A02D1B74CE2
:1008A000236A01E0B54C636A01F01F020124944001
:1008B0001C400CB1012000E0002010BD38B5002024
:1008C00000900024002500BF3120FFF7DBFF054624
:1008D0000098401C00901DB90098B0F5A06FF3D1AE
:1008E0003120FFF7CFFF08B1012400E000242046AB
:1008F00038BD01460020A14A106820F0F80040EA07
:10090000C10010607047A04908607047024600208F
:100910009A4B586820F47C1042EA01031843974B25
:100920005860704798490866704701460020934A0E
:10093000506820F003000843506070478F484068BB
:1009400000F00C007047014600208C4A506820F0EF
:10095000F00008435060704701460020874A506805
:1009600020F4E06008435060704701460020834A4D
:10097000506820F4605040EAC1005060704729B1CF
:100980007E4A527A02437D4B5A7204E07B4A527A85
:1009900082437A4B5A7270477B49D831086070475E
:1009A00001460020754A506820F4404008435060DA
:1009B00070470021714A20321170704A82F820106D
:1009C000012802D004280AD104E001216B4A203218
:1009D000117005E00521694A2032117000E000BF66
:1009E00000BF70476949086070476449096A01435C
:1009F000624A11627047654944390860704730B5F2
:100A000000210022002400235C4D6D6805F00C01DC
:100A100021B1042905D0082923D105E05C4D0560EA
:100A200022E05B4D05601FE0544D6D6805F47012C7
:100A3000022505EB9242514D6D6805F480341CB9D6
:100A4000544D554305600BE04C4D6D6805F4003581
:100A50001DB1504D5543056002E04D4D55430560B5
:100A600002E04B4D056000BF00BF444D6D6805F0CE
:100A7000F0010909484D6B5C0568DD4045603F4D5C
:100A80006D6805F4E061090A434D6B5C4568DD4023
:100A900085603A4D6D6805F46051C90A3E4D6B5C46
:100AA0004568DD40C560354D6D6805F44041890BF2
:100AB0003A4D6B5CC568B5FBF3F5056130BD29B1F6
:100AC0002E4A526902432D4B5A6104E02B4A526967
:100AD00082432A4B5A61704729B1284A92690243DE
:100AE000264B9A6104E0254A92698243234B9A611E
:100AF000704729B1214AD2690243204BDA6104E0F0
:100B00001E4AD26982431D4BDA61704729B11B4AE4
:100B1000D2680243194BDA6004E0184AD268824373
:100B2000164BDA60704729B1144A12690243134B1D
:100B30001A6104E0114A12698243104B1A6170472E
:100B400012494039086070470F49C86470470B4923
:100B5000C87170470948406A40F080700749486290
:100B6000704701460020054A92680A400AB10120F8
:100B700000E0002070470149887270470010024071
:100B80000000FFF8FFFFF6FE0000424280044242F0
:100B900000127A0000093D00000000201000002033
:100BA00010B50446D749601A8C422BD006DCD648D3
:100BB000204498B1B0F5806F38D119E0B0F5806F5E
:100BC0002AD0B0F56C4F31D101218803FFF79EFF89
:100BD00000214FF48040FFF799FF28E001214804ED
:100BE000FFF7A1FF00214FF40030FFF79CFF1EE04C
:100BF00001218804FFF797FF00214FF48020FFF7C1
:100C000092FF14E00121C804FFF78DFF00214FF48B
:100C10000020FFF788FF0AE001210805FFF783FFA6
:100C200000214FF48010FFF77EFF00E000BF00BFFF
:100C300010BD2DE9F04786B005460E460024A246B9
:100C400000BF00BF00272F462C8A4CF6FF700440DF
:100C5000F08804432C82AC894EF6F3100440B0882F
:100C600031890843718908430443AC81AC8A4FF64B
:100C7000FF400440B0890443AC8201A8FFF7BFFEE7
:100C8000A248874202D1DDF810A001E0DDF80CA0F7
:100C90000AEBCA0000EB0A1031688900B0FBF1F8DA
:100CA0006420B8FBF0F004012009642101FB1089E5
:100CB000322000EB0910B0FBF1F000F00F0004430C
:100CC0002C8106B0BDE8F0874FF416510160002179
:100CD0008180C18001810C21418100218181704787
:100CE00010B502460020108A4FF2FF0318400B880F
:100CF0004C8823438C882343CC8823431843108299
:100D000010BD0021018041808180C180704721B1E8
:100D1000828942F40052828104E082894DF6FF7399
:100D20001A4082817047F0B5034600240026002552
:100D300000201846C1F3421401F01F06012707FAEC
:100D400006F5012C01D10C3004E0022C01D1103049
:100D500000E014301AB107682F43076002E007680B
:100D6000AF430760F0BD1AB1838A0B43838202E070
:100D7000838A8B4383827047028A4FF6F0731A404E
:100D80000282028A0A430282704782894FF2FF730D
:100D90001A40828182890A438281704721B1828907
:100DA00042F00202828104E082894FF6FD731A400C
:100DB00082817047028A4FF6DF731A400282028AEC
:100DC0000A430282704721B1028A42F480420282C1
:100DD00004E0028A4BF6FF731A4002827047C1F3A7
:100DE00008028280704701468888C0F30800704777
:100DF000818941F0010181817047028BD2B2028367
:100E0000028B42EA012202837047028B02F47F4286
:100E10000283028B0A430283704721B1828A42F027
:100E20002002828204E0828A4FF6DF731A408282B7
:100E3000704721B1828A42F01002828204E0828AE5
:100E40004FF6EF731A408282704721B1828A42F0D6
:100E50000802828204E0828A4FF6F7731A40828287
:100E60007047828A4FF6FB731A408282828A0A4355
:100E70008282704721B1828A42F00202828204E0BB
:100E8000828A4FF6FD731A40828270470246002024
:100E900013880B400BB1012000E000207047CA43CB
:100EA0000280704770B502460B46002400210025E1
:100EB0000020C3F3421503F01F01012606FA01F1D9
:100EC000012D02D19689314006E0022D02D1168A09
:100ED000314001E0968A31401C12012606FA04F4E2
:100EE0001688344011B10CB1012000E0002070BD23
:100EF00010B5002200230A1201249440A3B2DC435F
:100F0000048010BD004C004000BCFFBF0038014011
:100F100010B50446F748204430B1B0F5806F0DD0CD
:100F2000B0F5C05F1ED113E001214802FFF7EEFDCE
:100F300000214FF40070FFF7E9FD14E00121880261
:100F4000FFF7E4FD00214FF48060FFF7DFFD0AE0CA
:100F50000121C803FFF7DAFD00214FF40040FFF73D
:100F6000D5FD00E000BF00BF10BD30B50246002037
:100F700000235068E04C20400D790C6844EA0524B9
:100F8000204350609068DD4C2040D1E902542C434E
:100F90004D7944EA450420439060D06A20F4700003
:100FA0000C7C641E1C43E3B240EA0350D06230BDA7
:100FB00000210160017141718160C16001210174F2
:100FC000704721B1826842F00102826003E08268CA
:100FD00022F001028260704721B1826842F480727F
:100FE000826003E0826822F480728260704710B5EC
:100FF0000023CBB21AB144681C43446002E0446849
:101000009C43446010BD816841F0080181607047D5
:10101000014600208A6802F008020AB1012000E0BF
:1010200000207047816841F00401816070470146EB
:1010300000208A6802F004020AB1012000E00020CA
:10104000704721B1826842F4A002826003E08268A6
:1010500022F4A00282607047014600208A6802F4F0
:1010600080020AB1012000E00020704710B50A4656
:1010700000210023416821F46041531E41EA4331BD
:10108000416010BD21B1426842F40062426003E059
:10109000426822F4006242607047F0B504460D4693
:1010A00000200021092D11DDE068A5F10A0606EBFC
:1010B0004607072606FA07F18843A5F10A0606EB5C
:1010C000460603FA06F10843E0600CE0206905EBF0
:1010D0004507072606FA07F1884305EB450603FA9C
:1010E00006F108432061072A0FDA606B561E06EBF3
:1010F00086071F2606FA07F18843561E06EB86066A
:1011000005FA06F10843606322E00D2A0FDA206B2E
:10111000D61F06EB86071F2606FA07F18843D61F5F
:1011200006EB860605FA06F10843206310E0E06A44
:10113000A2F10D0606EB86071F2606FA07F1884383
:10114000A2F10D0606EB860605FA06F10843E062F9
:10115000F0BD21B1826842F48012826003E08268AF
:1011600022F48012826070470146C86C80B27047DA
:1011700063480068704721B1426842F4806242606F
:1011800003E0426822F480624260704721B1426805
:1011900042F48052426003E0426822F4805242608E
:1011A00070470A460021816821F4E04111438160C3
:1011B000704721B1826842F40042826003E0826895
:1011C00022F400428260704721B1826842F4021228
:1011D000826003E0826822F4021282607047014656
:1011E00000208A6802F400120AB1012000E0002009
:1011F0007047F0B504461546002000220026092954
:1012000011DDE068A1F10A0707EB470C072707FA91
:101210000CF29043A1F10A0707EB470703FA07F224
:101220001043E0600CE0206901EB410C072707FA4E
:101230000CF2904301EB410703FA07F210432061DF
:10124000A06BC0F30156EF1C06F1010CA7EB0C07D5
:1012500007EB870C1F2707FA0CF29043EF1C06F1EF
:10126000010CA7EB0C0707EB870701FA07F2104305
:10127000A063F0BD10B50A4600210023816B21F464
:101280004011531E41EA0351816310BD4250704723
:1012900002465018806A80B270470A4600214168B1
:1012A000184B194011434160704741628262704798
:1012B0000A460021416821F01F0111434160704737
:1012C00040B10F494439096841F400010C4A443ADD
:1012D000116007E00A494439096821F40001084A0D
:1012E000443A116070470246002013680B405BB11E
:1012F00001200AE000DCFEBFFFFEF0FFFDF7F1FF7A
:101300004C240140FFFD3FFF00207047CA430260AC
:10131000704770B502460020002300240B12556868
:10132000CEB205EA060415681D4015B10CB10120C6
:1013300000E0002070BD00220A12D3430360704712
:10134000016821F0010101600021016041608160BC
:10135000C160874A811A90425BD012DC854AA0EBBB
:10136000020190423AD007DC83490144D9B11429E3
:1013700022D028297AD128E0142938D0282975D1FB
:101380003EE0B1F56C7F5BD006DCB1F5627F49D001
:10139000B1F5677F6AD14CE0B1F5717F57D0B1F5F7
:1013A000767F63D15BE073494439496841F00F01AE
:1013B000704A443A51605AE06E494439496841F0F4
:1013C000F0016C4A443A516051E06A494439496835
:1013D00041F47061674A443A516048E065494439D4
:1013E000496841F47041634A443A51603FE06149C1
:1013F0004439496841F470215E4A443A516036E00C
:101400005C494439496841F470015A4A443A516090
:101410002DE058494439496841F07061554A443AD1
:10142000516024E05549096841F00F01534A1160A9
:101430001DE05249096841F0F001504A116016E080
:101440004E49096841F470614C4A11600FE04B4904
:10145000096841F47041494A116008E006E04749D3
:10146000096841F47021454A116000E000BF00BFE7
:10147000704710B50022026847F6F0739A430C6A71
:101480008B6823430C6923434C6923438C692343B2
:10149000CC6923434C6A23438C6A23431A4302607A
:1014A000CB6843600B6883604B68C36010BD00214C
:1014B000016041608160C160016141618161C16120
:1014C000016241628162704721B1026842F001020B
:1014D000026003E0026822F00102026070471AB164
:1014E00003680B43036002E003688B4303607047AB
:1014F0000146486880B2704701460020002201F092
:1015000080531BB11D4B1B1F1A6802E0194B443B53
:101510001A6802EA01030BB1012000E000207047C5
:1015200000F0805111B11549086002E011494439B9
:101530004860704701460020002201F080531BB133
:101540000E4B1B1F1A6802E00A4B443B1A6802EA62
:1015500001030BB1012000E00020704700F0805132
:1015600011B10649086002E00249443948607047F9
:101570008000024044000240F8FFFDBF0404024026
:101580000CB50020019000904748006840F480307E
:101590004549086000BF4448006800F400300090EE
:1015A0000198401C0190009818B90198B0F5A06FFF
:1015B000F1D13D48006800F4003010B101200090E6
:1015C00001E0002000900098012844D137480068CD
:1015D00040F01000354908600846006820F003001C
:1015E00008600846006840F0020008602E48406825
:1015F0002D4948600846406848600846406840F405
:10160000806048600846406820F47C1048600846C6
:10161000406840F4E81048600846006840F0807078
:10162000086000BF2048006800F000700028F9D072
:101630001D48406820F003001B4948600846406888
:1016400040F00200486000BF1748406800F00C00FE
:101650000828F9D101E000BFFEE70CBD10B5FFF787
:101660008FFF10BD10B51048006840F001000E4912
:101670000860084640680E4908400B494860084623
:1016800000680C490840084908600846006820F4D2
:10169000802008600846406820F4FE004860002072
:1016A0008860FFF7DBFF10BD001002400020024001
:1016B0000000FFF8FFFFF6FE00B585B0012144F2FF
:1016C0000400FFF709FA4FF40070ADF8100018207D
:1016D0008DF8130003208DF8120004A91B48FEF7B3
:1016E0005FFF4FF48060ADF8100004208DF8130008
:1016F00004A91648FEF754FF4FF4E1300090002093
:10170000ADF80400ADF80600ADF80800ADF80C0027
:101710000C20ADF80A0069460D48FFF78AFA01214E
:101720000B48FFF7F4FA05B000BD70B504460D464E
:10173000E1B20748FFF753FB00BF0548008800F0FF
:1017400080000028F9D0204670BD0000000801404C
:101750000038014008B501210420FFF7BDF9012040
:10176000ADF8000000208DF8030069464348FEF7FD
:1017700017FF0220ADF8000000208DF80300694635
:101780003E48FEF70DFF08BD00B591B001210846A7
:10179000FFF795F93A48FFF7D3FD3A4806903A48E3
:1017A0000790002008900220099000200A908020D5
:1017B0000B9040000C9080000D9020200E900002B5
:1017C0000F900020109006A92D48FFF752FE01212E
:1017D0002B48FFF779FE01214802FFF77DF9002031
:1017E000019001208DF808008DF809004FF4602069
:1017F00003900020049002208DF8140001A92148D4
:101800004C38FFF7B2FB0523012200211D484C385C
:10181000FFF743FC0523022201211A484C38FFF749
:101820003CFC012117484C38FFF7D6FB0121154835
:101830004C38FFF7C6FB13484C38FFF7E4FB00BFFA
:1018400010484C38FFF7E4FB0028F9D10D484C381C
:10185000FFF7E8FB00BF0B484C38FFF7E8FB002818
:10186000F9D1012107484C38FFF7EBFB11B000BD5F
:1018700010B5FFF76FFFFFF787FF10BD00080140AD
:10188000080002404C2401401400002040EA0103FB
:101890009B0703D009E008C9121F08C0042AFAD226
:1018A00003E011F8013B00F8013B521EF9D27047EA
:1018B0002DE9FE4F804681EA0300C00F0C460090E0
:1018C00021F0004123F00045B8EB0200A94105D208
:1018D0004046214690461C460B46024623F00040F7
:1018E000104347D0270DC7F30A00C3F30A510290F3
:1018F000401A019040286BDAC3F3130040F4801BB8
:101900000098924620B10023D2EB030A63EB0B0B45
:1019100001985946C0F14002504600F0A7F906462A
:101920000D4650465946019A00F0BFF910EB0800E9
:101930006141002487EA115284EAE7731A4340D0D8
:10194000009A62B3019A012A4FEA075215DC001B84
:1019500061EB02014FF0004202EA0752CDE900427A
:10196000001C41F5801132462B4600F0BFF903B050
:10197000BDE8F08F40462146F9E7001B61EB02010C
:10198000001C41F5801300185B412018A2F50017D8
:1019900047EB030140EAD570B6196D4111E06D08BF
:1019A0004FEA360645EAC0754FEA0752001B61EB65
:1019B0000201001C41F5801149084FEA300000196E
:1019C000514132462B4603B0BDE8F04F00F07FB9DD
:1019D0000098012240000023D0EB020263EBE07389
:1019E000009821464FEAE074B8EB000061EB040177
:1019F000E9E783F000435BE781F0004158E72DE918
:101A0000FE4F81EA030404F0004421F000410094F9
:101A10004FF0000B23F0004350EA01045ED052EA7D
:101A200003045BD0C3F30A54C1F30A552C44A4F257
:101A3000F3340194A0FB0254C1F3130141F480116B
:101A4000C3F3130343F4801301FB024400FB034E72
:101A5000840A970A44EA815447EA8357A4FB07683B
:101A600002958D0A05FB07854FEA932C04FB0C5465
:101A70002705029D4FEA065847EA1637B5EB0805D9
:101A80006EEB070C870E920E47EA811742EA83122B
:101A9000A7FB0201B6EB0B0164EB00042B0D43EA3C
:101AA0000C335E1844EB1C50DA465146E7FB02014A
:101AB000C5F313044FEA0B3343EA14534FEA0432DD
:101AC000019C43EA0603A4F10C040294009CCDE9B6
:101AD00000B400F00BF903B0BDE8F08F0020014620
:101AE000F9E72DE9F04D81EA030404F0004B21F001
:101AF000004514464FF0000A23F0004150EA050269
:101B000020D054EA01021DD0C5F30A570246C5F39E
:101B10001303C1F31300C1F30A5640F4801543F4D4
:101B20008013A7EB0608101BD64608F2FD3873EBAE
:101B3000050002D308F1010801E092185B41B8F1F9
:101B4000000F03DA00200146BDE8F08D00204FF4BD
:101B50008011064684460EE0171B73EB050705D37C
:101B6000121B63EB050306434CEA010C49084FEADC
:101B7000300092185B4150EA0107EDD152EA0300B0
:101B800012D082EA040083EA0501084305D0101B45
:101B9000AB4106D20122002306E000224FF00043B1
:101BA00002E06FF0010253101AEB06004CEB0851F3
:101BB00010EB0A0041EB0B01BDE8F04D00F087B8D7
:101BC0000EB5C10F80EAE0700844CA07002140F258
:101BD00033438DE80E000A460B4600F087F803B049
:101BE00000BD0EB540F2334102910021CDE9001154
:101BF0000A460B4600F07AF803B000BD70B5C1F399
:101C00000A5201F000450024C1F3130140F2FF33F2
:101C100041F480119A4201DA002070BD40F2334352
:101C20009A42A2F2334203DC524200F02EF800E066
:101C300090402C43F1D0404270BDC1F30A5210B520
:101C4000C1F3130140F2FF3341F480119A4201DAEB
:101C5000002010BD40F233439A42A2F2334203DC2B
:101C6000524200F012F810BD904010BD202A04DB53
:101C7000203A00FA02F1002070479140C2F120039F
:101C800020FA03F3194390407047202A04DB203ADE
:101C900021FA02F00021704721FA02F3D040C2F18C
:101CA00020029140084319467047202A06DBCB17D3
:101CB000203A41FA02F043EAE07306E041FA02F307
:101CC000D040C2F12002914008431946704710B538
:101CD000141E73F1000408DA401C41F1000192184F
:101CE0005B411A4301D120F0010010BD2DE9F04DF8
:101CF00092469B4611B1B1FA81F202E0B0FA80F24D
:101D000020329046FFF7B2FF04460F4640EA0A0031
:101D100041EA0B0153465A46084313D0114653EA91
:101D2000010019D0C8F140025046FFF7AEFF05464A
:101D30000E46504659464246FFF798FF084305D0E5
:101D4000012004E020463946BDE8F08D002005431F
:101D500046EAE0762C4337430A986305E40AA0EB91
:101D600008000022FD0A44EA47540A3002D5002048
:101D70000146E9E7010510196941DDE90845001947
:101D80006941BDE8F04DA2E7064C074D06E0E0686A
:101D900040F0010394E8070098471034AC42F6D3B2
:101DA000FEF7CAF9B4A30108D4A3010802E008C8E9
:101DB000121F08C1002AFAD170477047002001E0C5
:101DC00001C1121F002AFBD17047FFF7AEBC000013
:101DD0000000000000000000010000000100000001
:101DE00001000000020000000200000002000000EC
:101DF00003000000030000000300000003000000D7
:101E000004000000040000000400000005000000C1
:101E100005000000050000000600000006000000AC
:101E20000600000007000000070000000700000097
:101E30000800000008000000080000000900000081
:101E400009000000090000000A0000000A0000006C
:101E50000A0000000B0000000B0000000B00000057
:101E60000C0000000C0000000C0000000D00000041
:101E70000D0000000D0000000E0000000E0000002C
:101E80000E0000000E0000000F0000000F00000018
:101E90000F00000010000000100000001000000003
:101EA00011000000110000001100000012000000ED
:101EB00012000000120000001300000013000000D8
:101EC00013000000140000001400000014000000C3
:101ED00015000000150000001500000016000000AD
:101EE0001600000016000000170000001700000098
:101EF0001700000018000000180000001800000083
:101F0000190000001900000019000000190000006D
:101F10001A0000001A0000001A0000001B00000058
:101F20001B0000001B0000001C0000001C00000043
:101F30001C0000001D0000001D0000001D0000002E
:101F40001E0000001E0000001E0000001F00000018
:101F50001F0000001F000000200000002000000003
:101F600020000000210000002100000021000000EE
:101F700022000000220000002200000022000000D9
:101F800023000000230000002300000024000000C4
:101F900024000000240000002500000025000000AF
:101FA000250000002600000026000000260000009A
:101FB0002700000027000000270000002800000084
:101FC000280000002800000029000000290000006F
:101FD000290000002A0000002A0000002A0000005A
:101FE0002B0000002B0000002B0000002B00000045
:101FF0002C0000002C0000002C0000002D00000030
:102000002D0000002D0000002E0000002E0000001A
:102010002E0000002F0000002F0000002F00000005
:1020200030000000300000003000000031000000EF
:1020300031000000310000003200000032000000DA
:1020400032000000330000003300000033000000C5
:1020500034000000340000003400000034000000B0
:10206000350000003500000035000000360000009B
:102070003600000036000000370000003700000086
:102080003700000038000000380000003800000071
:102090003900000039000000390000003A0000005B
:1020A0003A0000003A0000003B0000003B00000046
:1020B0003B0000003C0000003C0000003C00000031
:1020C0003C0000003D0000003D0000003D0000001D
:1020D0003E0000003E0000003E0000003F00000007
:1020E0003F0000003F0000004000000040000000F2
:1020F00040000000410000004100000041000000DD
:1021000042000000420000004200000043000000C6
:1021100043000000430000004300000044000000B2
:10212000440000004400000045000000450000009D
:102130004500000046000000460000004600000088
:102140004700000047000000470000004800000072
:10215000480000004800000049000000490000005D
:10216000490000004A0000004A0000004A00000048
:102170004B0000004B0000004B0000004B00000033
:102180004C0000004C0000004C0000004D0000001E
:102190004D0000004D0000004E0000004E00000009
:1021A0004E0000004F0000004F0000004F000000F4
:1021B00050000000500000005000000051000000DE
:1021C00051000000510000005200000052000000C9
:1021D00052000000520000005300000053000000B5
:1021E00053000000540000005400000054000000A0
:1021F000550000005500000055000000560000008A
:102200005600000056000000570000005700000074
:10221000570000005800000058000000580000005F
:10222000580000005900000059000000590000004B
:102230005A0000005A0000005A0000005B00000035
:102240005B0000005B0000005C0000005C00000020
:102250005C0000005D0000005D0000005D0000000B
:102260005E0000005E0000005E0000005F000000F5
:102270005F0000005F0000005F00000060000000E1
:1022800060000000600000006100000061000000CC
:1022900061000000620000006200000062000000B7
:1022A00063000000630000006300000064000000A1
:1022B000640000006400000065000000650000008C
:1022C0006500000065000000660000006600000078
:1022D0006600000067000000670000006700000063
:1022E000680000006800000068000000690000004D
:1022F00069000000690000006A0000006A00000038
:102300006A0000006B0000006B0000006B00000022
:102310006C0000006C0000006C0000006C0000000D
:102320006D0000006D0000006D0000006E000000F8
:102330006E0000006E0000006F0000006F000000E3
:102340006F000000700000007000000070000000CE
:1023500071000000710000007100000072000000B8
:1023600072000000720000007200000073000000A4
:10237000730000007300000074000000740000008F
:10238000740000007500000075000000750000007A
:102390007600000076000000760000007700000064
:1023A000770000007700000078000000780000004F
:1023B000780000007800000079000000790000003B
:1023C000790000007A0000007A0000007A00000026
:1023D0007B0000007B0000007B0000007C00000010
:1023E0007C0000007C0000007D0000007D000000FB
:1023F0007D0000007D0000007E0000007E000000E7
:102400007E0000007F0000007F0000007F000000D1
:1024100080000000800000008000000081000000BB
:1024200081000000810000008200000082000000A6
:102430008200000083000000830000008300000091
:10244000830000008400000084000000840000007D
:102450008500000085000000850000008600000067
:102460008600000086000000870000008700000052
:10247000870000008800000088000000880000003D
:102480008800000089000000890000008900000029
:102490008A0000008A0000008A0000008B00000013
:1024A0008B0000008B0000008C0000008C000000FE
:1024B0008C0000008D0000008D0000008D000000E9
:1024C0008E0000008E0000008E0000008E000000D4
:1024D0008F0000008F0000008F00000090000000BF
:1024E00090000000900000009100000091000000AA
:1024F0009100000092000000920000009200000095
:10250000930000009300000093000000930000007F
:10251000940000009400000094000000950000006A
:102520009500000095000000960000009600000055
:102530009600000097000000970000009700000040
:10254000980000009800000098000000980000002B
:102550009900000099000000990000009A00000016
:102560009A0000009A0000009B0000009B00000001
:102570009B0000009C0000009C0000009C000000EC
:102580009D0000009D0000009D0000009D000000D7
:102590009E0000009E0000009E0000009F000000C2
:1025A0009F0000009F000000A0000000A0000000AD
:1025B000A0000000A1000000A1000000A100000098
:1025C000A2000000A2000000A2000000A200000083
:1025D000A3000000A3000000A3000000A40000006E
:1025E000A4000000A4000000A5000000A500000059
:1025F000A5000000A6000000A6000000A600000044
:10260000A7000000A7000000A7000000A70000002E
:10261000A8000000A8000000A8000000A900000019
:10262000A9000000A9000000AA000000AA00000004
:10263000AA000000AB000000AB000000AB000000EF
:10264000AC000000AC000000AC000000AC000000DA
:10265000AD000000AD000000AD000000AE000000C5
:10266000AE000000AE000000AF000000AF000000B0
:10267000AF000000B0000000B0000000B00000009B
:10268000B0000000B1000000B1000000B100000087
:10269000B2000000B2000000B2000000B300000071
:1026A000B3000000B3000000B4000000B40000005C
:1026B000B4000000B5000000B5000000B500000047
:1026C000B5000000B6000000B6000000B600000033
:1026D000B7000000B7000000B7000000B80000001D
:1026E000B8000000B8000000B9000000B900000008
:1026F000B9000000B9000000BA000000BA000000F4
:10270000BA000000BB000000BB000000BB000000DE
:10271000BC000000BC000000BC000000BD000000C8
:10272000BD000000BD000000BE000000BE000000B3
:10273000BE000000BE000000BF000000BF0000009F
:10274000BF000000C0000000C0000000C00000008A
:10275000C1000000C1000000C1000000C200000074
:10276000C2000000C2000000C2000000C300000060
:10277000C3000000C3000000C4000000C40000004B
:10278000C4000000C5000000C5000000C500000036
:10279000C6000000C6000000C6000000C700000020
:1027A000C7000000C7000000C7000000C80000000C
:1027B000C8000000C8000000C9000000C9000000F7
:1027C000C9000000CA000000CA000000CA000000E2
:1027D000CB000000CB000000CB000000CB000000CD
:1027E000CC000000CC000000CC000000CD000000B8
:1027F000CD000000CD000000CE000000CE000000A3
:10280000CE000000CF000000CF000000CF0000008D
:10281000CF000000D0000000D0000000D000000079
:10282000D1000000D1000000D1000000D200000063
:10283000D2000000D2000000D3000000D30000004E
:10284000D3000000D3000000D4000000D40000003A
:10285000D4000000D5000000D5000000D500000025
:10286000D6000000D6000000D6000000D70000000F
:10287000D7000000D7000000D8000000D8000000FA
:10288000D8000000D8000000D9000000D9000000E6
:10289000D9000000DA000000DA000000DA000000D1
:1028A000DB000000DB000000DB000000DC000000BB
:1028B000DC000000DC000000DC000000DD000000A7
:1028C000DD000000DD000000DE000000DE00000092
:1028D000DE000000DF000000DF000000DF0000007D
:1028E000E0000000E0000000E0000000E000000068
:1028F000E1000000E1000000E1000000E200000053
:10290000E2000000E2000000E3000000E30000003D
:10291000E3000000E4000000E4000000E400000028
:10292000E4000000E5000000E5000000E500000014
:10293000E6000000E6000000E6000000E7000000FE
:10294000E7000000E7000000E8000000E8000000E9
:10295000E8000000E8000000E9000000E9000000D5
:10296000E9000000EA000000EA000000EA000000C0
:10297000EB000000EB000000EB000000EB000000AB
:10298000EC000000EC000000EC000000ED00000096
:10299000ED000000ED000000EE000000EE00000081
:1029A000EE000000EF000000EF000000EF0000006C
:1029B000EF000000F0000000F0000000F000000058
:1029C000F1000000F1000000F1000000F200000042
:1029D000F2000000F2000000F3000000F30000002D
:1029E000F3000000F3000000F4000000F400000019
:1029F000F4000000F5000000F5000000F500000004
:102A0000F6000000F6000000F6000000F7000000ED
:102A1000F7000000F7000000F7000000F8000000D9
:102A2000F8000000F8000000F9000000F9000000C4
:102A3000F9000000FA000000FA000000FA000000AF
:102A4000FB000000FB000000FB000000FB0000009A
:102A5000FC000000FC000000FC000000FD00000085
:102A6000FD000000FD000000FE000000FE00000070
:102A7000FE000000FE000000FF000000FF0000005C
:102A8000FF00000000010000000100000001000044
:102A9000010100000101000001010000020100002D
:102AA0000201000002010000020100000301000019
:102AB0000301000003010000040100000401000004
:102AC00004010000050100000501000005010000EF
:102AD00006010000060100000601000006010000DA
:102AE00007010000070100000701000008010000C5
:102AF00008010000080100000901000009010000B0
:102B000009010000090100000A0100000A0100009B
:102B10000A0100000B0100000B0100000B01000086
:102B20000C0100000C0100000C0100000D01000070
:102B30000D0100000D0100000D0100000E0100005C
:102B40000E0100000E0100000F0100000F01000047
:102B50000F01000010010000100100001001000032
:102B6000100100001101000011010000110100001E
:102B70001201000012010000120100001301000008
:102B800013010000130100001401000014010000F3
:102B900014010000140100001501000015010000DF
:102BA00015010000160100001601000016010000CA
:102BB00017010000170100001701000017010000B5
:102BC00018010000180100001801000019010000A0
:102BD00019010000190100001A0100001A0100008B
:102BE0001A0100001B0100001B0100001B01000076
:102BF0001B0100001C0100001C0100001C01000062
:102C00001D0100001D0100001D0100001E0100004B
:102C10001E0100001E0100001E0100001F01000037
:102C20001F0100001F010000200100002001000022
:102C3000200100002101000021010000210100000D
:102C400021010000220100002201000022010000F9
:102C500023010000230100002301000024010000E3
:102C600024010000240100002501000025010000CE
:102C700025010000250100002601000026010000BA
:102C800026010000270100002701000027010000A5
:102C90002801000028010000280100002801000090
:102CA0002901000029010000290100002A0100007B
:102CB0002A0100002A0100002B0100002B01000066
:102CC0002B0100002B0100002C0100002C01000052
:102CD0002C0100002D0100002D0100002D0100003D
:102CE0002E0100002E0100002E0100002F01000027
:102CF0002F0100002F0100002F0100003001000013
:102D000030010000300100003101000031010000FD
:102D100031010000320100003201000032010000E8
:102D200032010000330100003301000033010000D4
:102D300034010000340100003401000035010000BE
:102D400035010000350100003501000036010000AA
:102D50003601000036010000370100003701000095
:102D60003701000038010000380100003801000080
:102D7000380100003901000039010000390100006C
:102D80003A0100003A0100003A0100003B01000056
:102D90003B0100003B0100003B0100003C01000042
:102DA0003C0100003C0100003D0100003D0100002D
:102DB0003D0100003E0100003E0100003E01000018
:102DC0003F0100003F0100003F0100003F01000003
:102DD00040010000400100004001000041010000EE
:102DE00041010000410100004201000042010000D9
:102DF00042010000420100004301000043010000C5
:102E000043010000440100004401000044010000AF
:102E1000450100004501000045010000450100009A
:102E20004601000046010000460100004701000085
:102E30004701000047010000480100004801000070
:102E4000480100004801000049010000490100005C
:102E5000490100004A0100004A0100004A01000047
:102E60004B0100004B0100004B0100004B01000032
:102E70004C0100004C0100004C0100004D0100001D
:102E80004D0100004D0100004E0100004E01000008
:102E90004E0100004E0100004F0100004F010000F4
:102EA0004F010000500100005001000050010000DF
:102EB00051010000510100005101000051010000CA
:102EC00052010000520100005201000053010000B5
:102ED00053010000530100005401000054010000A0
:102EE000540100005401000055010000550100008C
:102EF0005501000056010000560100005601000077
:102F00005701000057010000570100005701000061
:102F1000580100005801000058010000590100004C
:102F200059010000590100005A0100005A01000037
:102F30005A0100005A0100005B0100005B01000023
:102F40005B0100005C0100005C0100005C0100000E
:102F50005D0100005D0100005D0100005D010000F9
:102F60005E0100005E0100005E0100005F010000E4
:102F70005F0100005F0100006001000060010000CF
:102F800060010000600100006101000061010000BB
:102F900061010000620100006201000062010000A6
:102FA0006301000063010000630100006301000091
:102FB000640100006401000064010000650100007C
:102FC0006501000065010000660100006601000067
:102FD0006601000066010000670100006701000053
:102FE000670100006801000068010000680100003E
:102FF0006901000069010000690100006901000029
:103000006A0100006A0100006A0100006B01000013
:103010006B0100006B0100006B0100006C010000FF
:103020006C0100006C0100006D0100006D010000EA
:103030006D0100006E0100006E0100006E010000D5
:103040006E0100006F0100006F0100006F010000C1
:1030500070010000700100007001000071010000AB
:103060007101000071010000710100007201000097
:103070007201000072010000730100007301000082
:10308000730100007401000074010000740100006D
:103090007401000075010000750100007501000059
:1030A0007601000076010000760100007701000043
:1030B000770100007701000077010000780100002F
:1030C000780100007801000079010000790100001A
:1030D000790100007A0100007A0100007A01000005
:1030E0007A0100007B0100007B0100007B010000F1
:1030F0007C0100007C0100007C0100007C010000DC
:103100007D0100007D0100007D0100007E010000C6
:103110007E0100007E0100007F0100007F010000B1
:103120007F0100007F01000080010000800100009D
:103130008001000081010000810100008101000088
:103140008201000082010000820100008201000073
:10315000830100008301000083010000840100005E
:103160008401000084010000850100008501000049
:103170008501000085010000860100008601000035
:103180008601000087010000870100008701000020
:10319000870100008801000088010000880100000C
:1031A0008901000089010000890100008A010000F6
:1031B0008A0100008A0100008A0100008B010000E2
:1031C0008B0100008B0100008C0100008C010000CD
:1031D0008C0100008D0100008D0100008D010000B8
:1031E0008D0100008E0100008E0100008E010000A4
:1031F0008F0100008F0100008F0100008F0100008F
:103200009001000090010000900100009101000079
:103210009101000091010000920100009201000064
:103220009201000092010000930100009301000050
:10323000930100009401000094010000940100003B
:103240009501000095010000950100009501000026
:103250009601000096010000960100009701000011
:1032600097010000970100009701000098010000FD
:1032700098010000980100009901000099010000E8
:10328000990100009A0100009A0100009A010000D3
:103290009A0100009B0100009B0100009B010000BF
:1032A0009C0100009C0100009C0100009C010000AA
:1032B0009D0100009D0100009D0100009E01000095
:1032C0009E0100009E0100009F0100009F01000080
:1032D0009F0100009F010000A0010000A00100006C
:1032E000A0010000A1010000A1010000A101000057
:1032F000A2010000A2010000A2010000A201000042
:10330000A3010000A3010000A3010000A40100002C
:10331000A4010000A4010000A4010000A501000018
:10332000A5010000A5010000A6010000A601000003
:10333000A6010000A7010000A7010000A7010000EE
:10334000A7010000A8010000A8010000A8010000DA
:10335000A9010000A9010000A9010000A9010000C5
:10336000AA010000AA010000AA010000AB010000B0
:10337000AB010000AB010000AC010000AC0100009B
:10338000AC010000AC010000AD010000AD01000087
:10339000AD010000AE010000AE010000AE01000072
:1033A000AE010000AF010000AF010000AF0100005E
:1033B000B0010000B0010000B0010000B101000048
:1033C000B1010000B1010000B1010000B201000034
:1033D000B2010000B2010000B3010000B30100001F
:1033E000B3010000B3010000B4010000B40100000B
:1033F000B4010000B5010000B5010000B5010000F6
:10340000B6010000B6010000B6010000B6010000E0
:10341000B7010000B7010000B7010000B8010000CB
:10342000B8010000B8010000B8010000B9010000B7
:10343000B9010000B9010000BA010000BA010000A2
:10344000BA010000BB010000BB010000BB0100008D
:10345000BB010000BC010000BC010000BC01000079
:10346000BD010000BD010000BD010000BD01000064
:10347000BE010000BE010000BE010000BF0100004F
:10348000BF010000BF010000C0010000C00100003A
:10349000C0010000C0010000C1010000C101000026
:1034A000C1010000C2010000C2010000C201000011
:1034B000C2010000C3010000C3010000C3010000FD
:1034C000C4010000C4010000C4010000C5010000E7
:1034D000C5010000C5010000C5010000C6010000D3
:1034E000C6010000C6010000C7010000C7010000BE
:1034F000C7010000C7010000C8010000C8010000AA
:10350000C8010000C9010000C9010000C901000094
:10351000CA010000CA010000CA010000CA0100007F
:10352000CB010000CB010000CB010000CC0100006A
:10353000CC010000CC010000CC010000CD01000056
:10354000CD010000CD010000CE010000CE01000041
:10355000CE010000CE010000CF010000CF0100002D
:10356000CF010000D0010000D0010000D001000018
:10357000D1010000D1010000D1010000D101000003
:10358000D2010000D2010000D2010000D3010000EE
:10359000D3010000D3010000D3010000D4010000DA
:1035A000D4010000D4010000D5010000D5010000C5
:1035B000D5010000D5010000D6010000D6010000B1
:1035C000D6010000D7010000D7010000D70100009C
:1035D000D8010000D8010000D8010000D801000087
:1035E000D9010000D9010000D9010000DA01000072
:1035F000DA010000DA010000DA010000DB0100005E
:10360000DB010000DB010000DC010000DC01000048
:10361000DC010000DD010000DD010000DD01000033
:10362000DD010000DE010000DE010000DE0100001F
:10363000DF010000DF010000DF010000DF0100000A
:10364000E0010000E0010000E0010000E1010000F5
:10365000E1010000E1010000E1010000E2010000E1
:10366000E2010000E2010000E3010000E3010000CC
:10367000E3010000E4010000E4010000E4010000B7
:10368000E4010000E5010000E5010000E5010000A3
:10369000E6010000E6010000E6010000E60100008E
:1036A000E7010000E7010000E7010000E801000079
:1036B000E8010000E8010000E8010000E901000065
:1036C000E9010000E9010000EA010000EA01000050
:1036D000EA010000EA010000EB010000EB0100003C
:1036E000EB010000EC010000EC010000EC01000027
:1036F000ED010000ED010000ED010000ED01000012
:10370000EE010000EE010000EE010000EF010000FC
:10371000EF010000EF010000EF010000F0010000E8
:10372000F0010000F0010000F1010000F1010000D3
:10373000F1010000F1010000F2010000F2010000BF
:10374000F2010000F3010000F3010000F3010000AA
:10375000F4010000F4010000F4010000F401000095
:10376000F5010000F5010000F5010000F601000080
:10377000F6010000F6010000F6010000F70100006C
:10378000F7010000F7010000F8010000F801000057
:10379000F8010000F8010000F9010000F901000043
:1037A000F9010000FA010000FA010000FA0100002E
:1037B000FA010000FB010000FB010000FB0100001A
:1037C000FC010000FC010000FC010000FD01000004
:1037D000FD010000FD010000FD010000FE010000F0
:1037E000FE010000FE010000FF010000FF010000DB
:1037F000FF010000FF0100000002000000020000C5
:1038000000020000010200000102000001020000AD
:103810000102000002020000020200000202000099
:103820000302000003020000030200000302000084
:10383000040200000402000004020000050200006F
:10384000050200000502000005020000060200005B
:103850000602000006020000070200000702000046
:103860000702000008020000080200000802000031
:10387000080200000902000009020000090200001D
:103880000A0200000A0200000A0200000A02000008
:103890000B0200000B0200000B0200000C020000F3
:1038A0000C0200000C0200000C0200000D020000DF
:1038B0000D0200000D0200000E0200000E020000CA
:1038C0000E0200000E0200000F0200000F020000B6
:1038D0000F020000100200001002000010020000A1
:1038E000100200001102000011020000110200008D
:1038F0001202000012020000120200001302000077
:103900001302000013020000130200001402000062
:10391000140200001402000015020000150200004D
:103920001502000015020000160200001602000039
:103930001602000017020000170200001702000024
:103940001702000018020000180200001802000010
:1039500019020000190200001902000019020000FB
:103960001A0200001A0200001A0200001B020000E6
:103970001B0200001B0200001B0200001C020000D2
:103980001C0200001C0200001D0200001D020000BD
:103990001D0200001D0200001E0200001E020000A9
:1039A0001E0200001F0200001F0200001F02000094
:1039B0001F02000020020000200200002002000080
:1039C000210200002102000021020000220200006A
:1039D0002202000022020000220200002302000056
:1039E0002302000023020000240200002402000041
:1039F000240200002402000025020000250200002D
:103A00002502000026020000260200002602000017
:103A10002602000027020000270200002702000003
:103A200028020000280200002802000028020000EE
:103A30002902000029020000290200002A020000D9
:103A40002A0200002A0200002A0200002B020000C5
:103A50002B0200002B0200002C0200002C020000B0
:103A60002C0200002C0200002D0200002D0200009C
:103A70002D0200002E0200002E0200002E02000087
:103A80002E0200002F0200002F0200002F02000073
:103A9000300200003002000030020000300200005E
:103AA0003102000031020000310200003202000049
:103AB0003202000032020000320200003302000035
:103AC0003302000033020000340200003402000020
:103AD000340200003402000035020000350200000C
:103AE00035020000360200003602000036020000F7
:103AF00036020000370200003702000037020000E3
:103B000038020000380200003802000039020000CC
:103B10003902000039020000390200003A020000B8
:103B20003A0200003A0200003B0200003B020000A3
:103B30003B0200003B0200003C0200003C0200008F
:103B40003C0200003D0200003D0200003D0200007A
:103B50003D0200003E0200003E0200003E02000066
:103B60003F0200003F0200003F0200003F02000051
:103B7000400200004002000040020000410200003C
:103B80004102000041020000410200004202000028
:103B90004202000042020000430200004302000013
:103BA00043020000430200004402000044020000FF
:103BB00044020000450200004502000045020000EA
:103BC00045020000460200004602000046020000D6
:103BD00047020000470200004702000047020000C1
:103BE00048020000480200004802000049020000AC
:103BF0004902000049020000490200004A02000098
:103C00004A0200004A0200004B0200004B02000082
:103C10004B0200004B0200004C0200004C0200006E
:103C20004C0200004D0200004D0200004D02000059
:103C30004D0200004E0200004E0200004E02000045
:103C40004F0200004F0200004F0200004F02000030
:103C5000500200005002000050020000510200001B
:103C60005102000051020000510200005202000007
:103C700052020000520200005302000053020000F2
:103C800053020000530200005402000054020000DE
:103C900054020000550200005502000055020000C9
:103CA00055020000560200005602000056020000B5
:103CB00057020000570200005702000057020000A0
:103CC000580200005802000058020000590200008B
:103CD0005902000059020000590200005A02000077
:103CE0005A0200005A0200005B0200005B02000062
:103CF0005B0200005B0200005C0200005C0200004E
:103D00005C0200005D0200005D0200005D02000038
:103D10005D0200005E0200005E0200005E02000024
:103D20005F0200005F0200005F0200005F0200000F
:103D300060020000600200006002000061020000FA
:103D400061020000610200006102000062020000E6
:103D500062020000620200006302000063020000D1
:103D600063020000630200006402000064020000BD
:103D700064020000650200006502000065020000A8
:103D80006502000066020000660200006602000094
:103D9000670200006702000067020000670200007F
:103DA000680200006802000068020000690200006A
:103DB0006902000069020000690200006A02000056
:103DC0006A0200006A0200006A0200006B02000042
:103DD0006B0200006B0200006C0200006C0200002D
:103DE0006C0200006C0200006D0200006D02000019
:103DF0006D0200006E0200006E0200006E02000004
:103E00006E0200006F0200006F0200006F020000EF
:103E100070020000700200007002000070020000DA
:103E200071020000710200007102000072020000C5
:103E300072020000720200007202000073020000B1
:103E4000730200007302000074020000740200009C
:103E50007402000074020000750200007502000088
:103E60007502000076020000760200007602000073
:103E7000760200007702000077020000770200005F
:103E8000780200007802000078020000780200004A
:103E90007902000079020000790200007A02000035
:103EA0007A0200007A0200007A0200007B02000021
:103EB0007B0200007B0200007C0200007C0200000C
:103EC0007C0200007C0200007D0200007D020000F8
:103ED0007D0200007E0200007E0200007E020000E3
:103EE0007E0200007F0200007F0200007F020000CF
:103EF00080020000800200008002000080020000BA
:103F000081020000810200008102000081020000A5
:103F10008202000082020000820200008302000090
:103F2000830200008302000083020000840200007C
:103F30008402000084020000850200008502000067
:103F40008502000085020000860200008602000053
:103F5000860200008702000087020000870200003E
:103F6000870200008802000088020000880200002A
:103F70008902000089020000890200008902000015
:103F80008A0200008A0200008A0200008B02000000
:103F90008B0200008B0200008B0200008C020000EC
:103FA0008C0200008C0200008D0200008D020000D7
:103FB0008D0200008D0200008E0200008E020000C3
:103FC0008E0200008F0200008F0200008F020000AE
:103FD0008F0200009002000090020000900200009A
:103FE0009002000091020000910200009102000086
:103FF0009202000092020000920200009202000071
:10400000930200009302000093020000940200005B
:104010009402000094020000940200009502000047
:104020009502000095020000960200009602000032
:10403000960200009602000097020000970200001E
:104040009702000098020000980200009802000009
:1040500098020000990200009902000099020000F5
:104060009A0200009A0200009A0200009A020000E0
:104070009B0200009B0200009B0200009C020000CB
:104080009C0200009C0200009C0200009D020000B7
:104090009D0200009D0200009D0200009E020000A3
:1040A0009E0200009E0200009F0200009F0200008E
:1040B0009F0200009F020000A0020000A00200007A
:1040C000A0020000A1020000A1020000A102000065
:1040D000A1020000A2020000A2020000A202000051
:1040E000A3020000A3020000A3020000A30200003C
:1040F000A4020000A4020000A4020000A502000027
:10410000A5020000A5020000A5020000A602000012
:10411000A6020000A6020000A7020000A7020000FD
:10412000A7020000A7020000A8020000A8020000E9
:10413000A8020000A8020000A9020000A9020000D5
:10414000A9020000AA020000AA020000AA020000C0
:10415000AA020000AB020000AB020000AB020000AC
:10416000AC020000AC020000AC020000AC02000097
:10417000AD020000AD020000AD020000AE02000082
:10418000AE020000AE020000AE020000AF0200006E
:10419000AF020000AF020000B0020000B002000059
:1041A000B0020000B0020000B1020000B102000045
:1041B000B1020000B1020000B2020000B202000031
:1041C000B2020000B3020000B3020000B30200001C
:1041D000B3020000B4020000B4020000B402000008
:1041E000B5020000B5020000B5020000B5020000F3
:1041F000B6020000B6020000B6020000B7020000DE
:10420000B7020000B7020000B7020000B8020000C9
:10421000B8020000B8020000B9020000B9020000B4
:10422000B9020000B9020000BA020000BA020000A0
:10423000BA020000BA020000BB020000BB0200008C
:10424000BB020000BC020000BC020000BC02000077
:10425000BC020000BD020000BD020000BD02000063
:10426000BE020000BE020000BE020000BE0200004E
:10427000BF020000BF020000BF020000C002000039
:10428000C0020000C0020000C0020000C102000025
:10429000C1020000C1020000C1020000C202000011
:1042A000C2020000C2020000C3020000C3020000FC
:1042B000C3020000C3020000C4020000C4020000E8
:1042C000C4020000C5020000C5020000C5020000D3
:1042D000C5020000C6020000C6020000C6020000BF
:1042E000C7020000C7020000C7020000C7020000AA
:1042F000C8020000C8020000C8020000C902000095
:10430000C9020000C9020000C9020000CA02000080
:10431000CA020000CA020000CA020000CB0200006C
:10432000CB020000CB020000CC020000CC02000057
:10433000CC020000CC020000CD020000CD02000043
:10434000CD020000CE020000CE020000CE0200002E
:10435000CE020000CF020000CF020000CF0200001A
:10436000D0020000D0020000D0020000D002000005
:10437000D1020000D1020000D1020000D1020000F1
:10438000D2020000D2020000D2020000D3020000DC
:10439000D3020000D3020000D3020000D4020000C8
:1043A000D4020000D4020000D5020000D5020000B3
:1043B000D5020000D5020000D6020000D60200009F
:1043C000D6020000D7020000D7020000D70200008A
:1043D000D7020000D8020000D8020000D802000076
:1043E000D8020000D9020000D9020000D902000062
:1043F000DA020000DA020000DA020000DA0200004D
:10440000DB020000DB020000DB020000DC02000037
:10441000DC020000DC020000DC020000DD02000023
:10442000DD020000DD020000DD020000DE0200000F
:10443000DE020000DE020000DF020000DF020000FA
:10444000DF020000DF020000E0020000E0020000E6
:10445000E0020000E1020000E1020000E1020000D1
:10446000E1020000E2020000E2020000E2020000BD
:10447000E3020000E3020000E3020000E3020000A8
:10448000E4020000E4020000E4020000E402000094
:10449000E5020000E5020000E5020000E60200007F
:1044A000E6020000E6020000E6020000E70200006B
:1044B000E7020000E7020000E8020000E802000056
:1044C000E8020000E8020000E9020000E902000042
:1044D000E9020000E9020000EA020000EA0200002E
:1044E000EA020000EB020000EB020000EB02000019
:1044F000EB020000EC020000EC020000EC02000005
:10450000ED020000ED020000ED020000ED020000EF
:10451000EE020000EE020000EE020000EF020000DA
:10452000EF020000EF020000EF020000F0020000C6
:10453000F0020000F0020000F0020000F1020000B2
:10454000F1020000F1020000F2020000F20200009D
:10455000F2020000F2020000F3020000F302000089
:10456000F3020000F4020000F4020000F402000074
:10457000F4020000F5020000F5020000F502000060
:10458000F5020000F6020000F6020000F60200004C
:10459000F7020000F7020000F7020000F702000037
:1045A000F8020000F8020000F8020000F902000022
:1045B000F9020000F9020000F9020000FA0200000E
:1045C000FA020000FA020000FA020000FB020000FA
:1045D000FB020000FB020000FC020000FC020000E5
:1045E000FC020000FC020000FD020000FD020000D1
:1045F000FD020000FE020000FE020000FE020000BC
:10460000FE020000FF020000FF020000FF020000A7
:10461000FF02000000030000000300000003000090
:10462000010300000103000001030000010300007A
:104630000203000002030000020300000303000065
:104640000303000003030000030300000403000051
:10465000040300000403000004030000050300003D
:104660000503000005030000060300000603000028
:104670000603000006030000070300000703000014
:1046800007030000080300000803000008030000FF
:1046900008030000090300000903000009030000EB
:1046A000090300000A0300000A0300000A030000D7
:1046B0000B0300000B0300000B0300000B030000C2
:1046C0000C0300000C0300000C0300000D030000AD
:1046D0000D0300000D0300000D0300000E03000099
:1046E0000E0300000E0300000E0300000F03000085
:1046F0000F0300000F030000100300001003000070
:10470000100300001003000011030000110300005B
:104710001103000012030000120300001203000046
:104720001203000013030000130300001303000032
:10473000130300001403000014030000140300001E
:104740001503000015030000150300001503000009
:1047500016030000160300001603000017030000F4
:1047600017030000170300001703000018030000E0
:1047700018030000180300001803000019030000CC
:1047800019030000190300001A0300001A030000B7
:104790001A0300001A0300001B0300001B030000A3
:1047A0001B0300001C0300001C0300001C0300008E
:1047B0001C0300001D0300001D0300001D0300007A
:1047C0001D0300001E0300001E0300001E03000066
:1047D0001F0300001F0300001F0300001F03000051
:1047E000200300002003000020030000200300003D
:1047F0002103000021030000210300002203000028
:104800002203000022030000220300002303000013
:1048100023030000230300002403000024030000FE
:1048200024030000240300002503000025030000EA
:1048300025030000250300002603000026030000D6
:1048400026030000270300002703000027030000C1
:1048500027030000280300002803000028030000AD
:104860002903000029030000290300002903000098
:104870002A0300002A0300002A0300002A03000084
:104880002B0300002B0300002B0300002C0300006F
:104890002C0300002C0300002C0300002D0300005B
:1048A0002D0300002D0300002D0300002E03000047
:1048B0002E0300002E0300002F0300002F03000032
:1048C0002F0300002F03000030030000300300001E
:1048D0003003000031030000310300003103000009
:1048E00031030000320300003203000032030000F5
:1048F00032030000330300003303000033030000E1
:1049000034030000340300003403000034030000CB
:1049100035030000350300003503000035030000B7
:1049200036030000360300003603000037030000A2
:10493000370300003703000037030000380300008E
:104940003803000038030000390300003903000079
:1049500039030000390300003A0300003A03000065
:104960003A0300003A0300003B0300003B03000051
:104970003B0300003C0300003C0300003C0300003C
:104980003C0300003D0300003D0300003D03000028
:104990003D0300003E0300003E0300003E03000014
:1049A0003F0300003F0300003F0300003F030000FF
:1049B00040030000400300004003000041030000EA
:1049C00041030000410300004103000042030000D6
:1049D00042030000420300004203000043030000C2
:1049E00043030000430300004403000044030000AD
:1049F0004403000044030000450300004503000099
:104A00004503000045030000460300004603000084
:104A1000460300004703000047030000470300006F
:104A2000470300004803000048030000480300005B
:104A30004803000049030000490300004903000047
:104A40004A0300004A0300004A0300004A03000032
:104A50004B0300004B0300004B0300004C0300001D
:104A60004C0300004C0300004C0300004D03000009
:104A70004D0300004D0300004D0300004E030000F5
:104A80004E0300004E0300004F0300004F030000E0
:104A90004F0300004F0300005003000050030000CC
:104AA00050030000500300005103000051030000B8
:104AB00051030000520300005203000052030000A3
:104AC000520300005303000053030000530300008F
:104AD000530300005403000054030000540300007B
:104AE0005503000055030000550300005503000066
:104AF0005603000056030000560300005703000051
:104B0000570300005703000057030000580300003C
:104B10005803000058030000580300005903000028
:104B200059030000590300005A0300005A03000013
:104B30005A0300005A0300005B0300005B030000FF
:104B40005B0300005B0300005C0300005C030000EB
:104B50005C0300005D0300005D0300005D030000D6
:104B60005D0300005E0300005E0300005E030000C2
:104B70005E0300005F0300005F0300005F030000AE
:104B80006003000060030000600300006003000099
:104B90006103000061030000610300006103000085
:104BA0006203000062030000620300006303000070
:104BB000630300006303000063030000640300005C
:104BC0006403000064030000650300006503000047
:104BD0006503000065030000660300006603000033
:104BE000660300006603000067030000670300001F
:104BF000670300006803000068030000680300000A
:104C000068030000690300006903000069030000F5
:104C1000690300006A0300006A0300006A030000E1
:104C20006B0300006B0300006B0300006B030000CC
:104C30006C0300006C0300006C0300006C030000B8
:104C40006D0300006D0300006D0300006E030000A3
:104C50006E0300006E0300006E0300006F0300008F
:104C60006F0300006F0300006F030000700300007B
:104C70007003000070030000710300007103000066
:104C80007103000071030000720300007203000052
:104C9000720300007203000073030000730300003E
:104CA0007303000074030000740300007403000029
:104CB0007403000075030000750300007503000015
:104CC0007503000076030000760300007603000001
:104CD00077030000770300007703000077030000EC
:104CE00078030000780300007803000078030000D8
:104CF0007903000079030000790300007A030000C3
:104D00007A0300007A0300007A0300007B030000AE
:104D10007B0300007B0300007C0300007C03000099
:104D20007C0300007C0300007D0300007D03000085
:104D30007D0300007D0300007E0300007E03000071
:104D40007E0300007F0300007F0300007F0300005C
:104D50007F03000080030000800300008003000048
:104D60008003000081030000810300008103000034
:104D7000820300008203000082030000820300001F
:104D8000830300008303000083030000830300000B
:104D900084030000840300008403000085030000F6
:104DA00085030000850300008503000086030000E2
:104DB00086030000860300008603000087030000CE
:104DC00087030000870300008803000088030000B9
:104DD00088030000880300008903000089030000A5
:104DE00089030000890300008A0300008A03000091
:104DF0008A0300008B0300008B0300008B0300007C
:104E00008B0300008C0300008C0300008C03000067
:104E10008C0300008D0300008D0300008D03000053
:104E20008E0300008E0300008E0300008E0300003E
:104E30008F0300008F0300008F0300008F0300002A
:104E40009003000090030000900300009103000015
:104E50009103000091030000910300009203000001
:104E600092030000920300009203000093030000ED
:104E700093030000930300009403000094030000D8
:104E800094030000940300009503000095030000C4
:104E900095030000950300009603000096030000B0
:104EA000960300009703000097030000970300009B
:104EB0009703000098030000980300009803000087
:104EC0009803000099030000990300009903000073
:104ED0009A0300009A0300009A0300009A0300005E
:104EE0009B0300009B0300009B0300009B0300004A
:104EF0009C0300009C0300009C0300009D03000035
:104F00009D0300009D0300009D0300009E03000020
:104F10009E0300009E0300009E0300009F0300000C
:104F20009F0300009F0300009F030000A0030000F8
:104F3000A0030000A0030000A1030000A1030000E3
:104F4000A1030000A1030000A2030000A2030000CF
:104F5000A2030000A2030000A3030000A3030000BB
:104F6000A3030000A4030000A4030000A4030000A6
:104F7000A4030000A5030000A5030000A503000092
:104F8000A5030000A6030000A6030000A60300007E
:104F9000A7030000A7030000A7030000A703000069
:104FA000A8030000A8030000A8030000A803000055
:104FB000A9030000A9030000A9030000AA03000040
:104FC000AA030000AA030000AA030000AB0300002C
:104FD000AB030000AB030000AB030000AC03000018
:104FE000AC030000AC030000AD030000AD03000003
:104FF000AD030000AD030000AE030000AE030000EF
:10500000AE030000AE030000AF030000AF030000DA
:10501000AF030000B0030000B0030000B0030000C5
:10502000B0030000B1030000B1030000B1030000B1
:10503000B1030000B2030000B2030000B20300009D
:10504000B3030000B3030000B3030000B303000088
:10505000B4030000B4030000B4030000B403000074
:10506000B5030000B5030000B5030000B60300005F
:10507000B6030000B6030000B6030000B70300004B
:10508000B7030000B7030000B7030000B803000037
:10509000B8030000B8030000B8030000B903000023
:1050A000B9030000B9030000BA030000BA0300000E
:1050B000BA030000BA030000BB030000BB030000FA
:1050C000BB030000BB030000BC030000BC030000E6
:1050D000BC030000BD030000BD030000BD030000D1
:1050E000BD030000BE030000BE030000BE030000BD
:1050F000BE030000BF030000BF030000BF030000A9
:10510000C0030000C0030000C0030000C003000093
:10511000C1030000C1030000C1030000C10300007F
:10512000C2030000C2030000C2030000C30300006A
:10513000C3030000C3030000C3030000C403000056
:10514000C4030000C4030000C4030000C503000042
:10515000C5030000C5030000C5030000C60300002E
:10516000C6030000C6030000C7030000C703000019
:10517000C7030000C7030000C8030000C803000005
:10518000C8030000C8030000C9030000C9030000F1
:10519000C9030000CA030000CA030000CA030000DC
:1051A000CA030000CB030000CB030000CB030000C8
:1051B000CB030000CC030000CC030000CC030000B4
:1051C000CD030000CD030000CD030000CD0300009F
:1051D000CE030000CE030000CE030000CE0300008B
:1051E000CF030000CF030000CF030000D003000076
:1051F000D0030000D0030000D0030000D103000062
:10520000D1030000D1030000D1030000D20300004D
:10521000D2030000D2030000D2030000D303000039
:10522000D3030000D3030000D4030000D403000024
:10523000D4030000D4030000D5030000D503000010
:10524000D5030000D5030000D6030000D6030000FC
:10525000D6030000D7030000D7030000D7030000E7
:10526000D7030000D8030000D8030000D8030000D3
:10527000D8030000D9030000D9030000D9030000BF
:10528000D9030000DA030000DA030000DA030000AB
:10529000DB030000DB030000DB030000DB03000096
:1052A000DC030000DC030000DC030000DC03000082
:1052B000DD030000DD030000DD030000DE0300006D
:1052C000DE030000DE030000DE030000DF03000059
:1052D000DF030000DF030000DF030000E003000045
:1052E000E0030000E0030000E1030000E103000030
:1052F000E1030000E1030000E2030000E20300001C
:10530000E2030000E2030000E3030000E303000007
:10531000E3030000E3030000E4030000E4030000F3
:10532000E4030000E5030000E5030000E5030000DE
:10533000E5030000E6030000E6030000E6030000CA
:10534000E6030000E7030000E7030000E7030000B6
:10535000E8030000E8030000E8030000E8030000A1
:10536000E9030000E9030000E9030000E90300008D
:10537000EA030000EA030000EA030000EA03000079
:10538000EB030000EB030000EB030000EC03000064
:10539000EC030000EC030000EC030000ED03000050
:1053A000ED030000ED030000ED030000EE0300003C
:1053B000EE030000EE030000EF030000EF03000027
:1053C000EF030000EF030000F0030000F003000013
:1053D000F0030000F0030000F1030000F1030000FF
:1053E000F1030000F2030000F2030000F2030000EA
:1053F000F2030000F3030000F3030000F3030000D6
:10540000F3030000F4030000F4030000F4030000C1
:10541000F4030000F5030000F5030000F5030000AD
:10542000F6030000F6030000F6030000F603000098
:10543000F7030000F7030000F7030000F703000084
:10544000F8030000F8030000F8030000F803000070
:10545000F9030000F9030000F9030000FA0300005B
:10546000FA030000FA030000FA030000FB03000047
:10547000FB030000FB030000FB030000FC03000033
:10548000FC030000FC030000FD030000FD0300001E
:10549000FD030000FD030000FE030000FE0300000A
:1054A000FE030000FE030000FF030000FF030000F6
:1054B000FF030000FF0300000004000000040000E0
:1054C00000040000010400000104000001040000C9
:1054D00001040000020400000204000002040000B5
:1054E00002040000030400000304000003040000A1
:1054F000040400000404000004040000040400008C
:105500000504000005040000050400000504000077
:105510000604000006040000060400000604000063
:10552000070400000704000007040000080400004E
:10553000080400000804000008040000090400003A
:105540000904000009040000090400000A04000026
:105550000A0400000A0400000B0400000B04000011
:105560000B0400000B0400000C0400000C040000FD
:105570000C0400000C0400000D0400000D040000E9
:105580000D0400000D0400000E0400000E040000D5
:105590000E0400000F0400000F0400000F040000C0
:1055A0000F040000100400001004000010040000AC
:1055B0001004000011040000110400001104000098
:1055C0001104000012040000120400001204000084
:1055D000130400001304000013040000130400006F
:1055E000140400001404000014040000140400005B
:1055F0001504000015040000150400001604000046
:105600001604000016040000160400001704000031
:10561000170400001704000017040000180400001D
:105620001804000018040000180400001904000009
:1056300019040000190400001A0400001A040000F4
:105640001A0400001A0400001B0400001B040000E0
:105650001B0400001B0400001C0400001C040000CC
:105660001C0400001C0400001D0400001D040000B8
:105670001D0400001E0400001E0400001E040000A3
:105680001E0400001F0400001F0400001F0400008F
:105690001F0400002004000020040000200400007B
:1056A0002004000021040000210400002104000067
:1056B0002204000022040000220400002204000052
:1056C000230400002304000023040000230400003E
:1056D0002404000024040000240400002504000029
:1056E0002504000025040000250400002604000015
:1056F0002604000026040000260400002704000001
:1057000027040000270400002704000028040000EC
:1057100028040000280400002904000029040000D7
:1057200029040000290400002A0400002A040000C3
:105730002A0400002A0400002B0400002B040000AF
:105740002B0400002B0400002C0400002C0400009B
:105750002C0400002D0400002D0400002D04000086
:105760002D0400002E0400002E0400002E04000072
:105770002E0400002F0400002F0400002F0400005E
:105780002F0400003004000030040000300400004A
:105790003104000031040000310400003104000035
:1057A0003204000032040000320400003204000021
:1057B000330400003304000033040000330400000D
:1057C00034040000340400003404000035040000F8
:1057D00035040000350400003504000036040000E4
:1057E00036040000360400003604000037040000D0
:1057F00037040000370400003704000038040000BC
:1058000038040000380400003904000039040000A6
:1058100039040000390400003A0400003A04000092
:105820003A0400003A0400003B0400003B0400007E
:105830003B0400003B0400003C0400003C0400006A
:105840003C0400003D0400003D0400003D04000055
:105850003D0400003E0400003E0400003E04000041
:105860003E0400003F0400003F0400003F0400002D
:105870003F04000040040000400400004004000019
:105880004104000041040000410400004104000004
:1058900042040000420400004204000042040000F0
:1058A00043040000430400004304000043040000DC
:1058B00044040000440400004404000045040000C7
:1058C00045040000450400004504000046040000B3
:1058D000460400004604000046040000470400009F
:1058E000470400004704000047040000480400008B
:1058F0004804000048040000490400004904000076
:1059000049040000490400004A0400004A04000061
:105910004A0400004A0400004B0400004B0400004D
:105920004B0400004B0400004C0400004C04000039
:105930004C0400004D0400004D0400004D04000024
:105940004D0400004E0400004E0400004E04000010
:105950004E0400004F0400004F0400004F040000FC
:105960004F040000500400005004000050040000E8
:1059700051040000510400005104000051040000D3
:1059800052040000520400005204000052040000BF
:1059900053040000530400005304000053040000AB
:1059A0005404000054040000540400005504000096
:1059B0005504000055040000550400005604000082
:1059C000560400005604000056040000570400006E
:1059D000570400005704000057040000580400005A
:1059E0005804000058040000590400005904000045
:1059F00059040000590400005A0400005A04000031
:105A00005A0400005A0400005B0400005B0400001C
:105A10005B0400005B0400005C0400005C04000008
:105A20005C0400005D0400005D0400005D040000F3
:105A30005D0400005E0400005E0400005E040000DF
:105A40005E0400005F0400005F0400005F040000CB
:105A50005F040000600400006004000060040000B7
:105A600061040000610400006104000061040000A2
:105A7000620400006204000062040000620400008E
:105A8000630400006304000063040000630400007A
:105A90006404000064040000640400006404000066
:105AA0006504000065040000650400006604000051
:105AB000660400006604000066040000670400003D
:105AC0006704000067040000670400006804000029
:105AD0006804000068040000680400006904000015
